:02000000292EA7
:08000800FF00030E8316031331
:10001000A8000A0EA900040EAA008A110A12E52EF1
:100020000330CA07CA0CCA0C7F30CA050000CA0BCD
:1000300016280800C608031D1E280800F930FF3ED8
:10004000031D1F280000C60B1E280800FA30C6003A
:100050001A20FA30C6001A20FA30C6001A20FA30E8
:10006000C6001A20C50B2628080083132030840000
:100070002030540284070008D5008313A030840088
:10008000530884075508800008001F3083160313A7
:10009000110503191419452808008313A0308400A2
:1000A0004908840700308000CA010A304802031C56
:1000B0005D280A30C802CA0A5528CA0803196628EA
:1000C0004908D30030304A07D4003520490AD3000C
:1000D00030304807D400352008008030CB00CB08F2
:1000E000031908008312051183164B084A050319EA
:1000F0007C28831205147E28831205100515031031
:100100008316CB0C6F288312031385140511051079
:100110001E308316CA001020080083120313051036
:100120000511851008004520470883129300080038
:1001300045201115080045201114080049088312B4
:1001400003178D0083168C130C1483120C0883166E
:100150000313CA0008009B208830C7009320831631
:100160004508C700932083164608C70093209820AF
:100170000800073083160313C9000130C800093096
:100180004802031808008D2083164808CA006D2015
:100190008313A0308400490884070008CA006D203A
:1001A0008320C903C80ABF288D200B308316CA00DC
:1001B0006D200730CA006D2083208D200930831602
:1001C000CA006D20CA016D2083208D200A3083165D
:1001D000CA006D200530CA006D2083200800D201BE
:1001E000083052020318080083134918831748087F
:1001F0008400800803190A295208D3008313491880
:10020000831748088400C80A0319C90A0008D400E3
:10021000352011298313A030840052088407003050
:100220008000D20AF028C6014508073A031D1A29A2
:10023000C5012D294508073C0318252945080F3C11
:10024000C7000310470DC5002D290130C600450821
:10025000073CC7000310470DC500C6080319352920
:100260000430D3002D30D40035204508C8000530B7
:10027000C9004D200800C8014608C9009E20470853
:100280004A06031965290B08C9004608831203179B
:100290008D00831603134708831203178C008316FF
:1002A0008C130C158B0155308D00AA308D008C14E9
:1002B000031349088B0003170C11831203130D1E3F
:1002C0005D290D1201308316C8004808C9000800D6
:1002D0008312031310108F018E010800831603137D
:1002E000C601033030020319C60A461C792983125D
:1002F0000616831646187E29831206129B20883024
:10030000C700932010308316C7009320831630084F
:10031000C700932083137B30840083163008840742
:100320000008C700932083163108C7009320831666
:100330003608C700932083163708C700932083161A
:100340003808C700932083163408003C0318AF29EF
:10035000C701932083163408C7009320B5293508B8
:10036000C70093208316C7019320982008009B2084
:100370008830C700932016308316C7009320831659
:100380003408003C0318CB29C70193208316340896
:10039000C7009320D1293508C70093208316C701D1
:1003A000932098200800053083160313C5003808F1
:1003B000C600AB200800043083160313C5003708BD
:1003C000C600AB200800033083160313C5003608AF
:1003D000C600AB20080083160313C50103303002AA
:1003E0000319C50A451CF6298312061683164518FB
:1003F000FB29831206129B208830C70093201030FF
:100400008316C700932083163008C70093208313F8
:100410007B3084008316300884070008C7009320CF
:100420009820080083160313B20803191D2A02300E
:10043000C5003830C600AB2008000230C5003108C6
:10044000C600AB20080083160313B20803193D2A27
:100450005330CA006E30CB006430CC002030CD0069
:100460004F30CE004630CF00D000D1010030C9005F
:10047000CA30C800EF20B920A92A3008003A031971
:100480004B2A013A0319582A033A0319652A013AFB
:100490000319722A7E2A4930CA006E30CB003330ED
:1004A000CC00CD010030C900CA30C800EF207E2A40
:1004B0004930CA006E30CB003230CC00CD01003064
:1004C000C900CA30C800EF207E2A4930CA006E3009
:1004D000CB003130CC00CD010030C900CA30C8009B
:1004E000EF207E2A6230CA006C30CB007530CC0021
:1004F000CD010030C900CA30C800EF203108C60065
:1005000083137B308400300884070008C700031081
:10051000C70D470846020318922AA301460847025E
:10052000C600992A0330D3002D30D4003520470867
:10053000C6024608C8000430C9004D200630D3006A
:100540006430D40035200730D3006230D400352029
:10055000B9203108383A0319B02AB2080319B42A6D
:1005600083120711871408008312071587100800EB
:1005700083160313C5010130C6003108C7003B21B3
:100580004908C5070230C6003408C7003B214908A6
:10059000C5070330C6003508C7003B214908C50719
:1005A0000430C6003608C7003B214908C50705309E
:1005B000C6003708C7003B214908C5070630C600FA
:1005C0003808C7003B214908C5070730C600300876
:1005D000C7003B214908C507C50803190800C60123
:1005E0000A30C7003B2108008312031305100511D0
:1005F00085148611FA308316C6001A20D4208D2067
:100600000C308316CA006D200130CA006D20832093
:10061000FA30CA00102008008D200C308316CA0062
:100620006D20CA016D2083208312861164308316E9
:10063000C6001A20080045080E3A031D222B073079
:10064000C5002B2B4508073C0318282BC50A2B2B6C
:10065000C508031DC5034508C60008004508073A3C
:10066000031D352B0E30C5003F2B4508083C0318F1
:100670003B2BC5033F2B07304502031CC50A450829
:10068000C6000800831603133908013A0319522BD8
:10069000033A0319632B013A0319752B073A03191F
:1006A000872BC92B6230CA004130CB005330CC00BD
:1006B000CD00CE010030C900CA30C800EF20370895
:1006C000C5001321C92B5430CA007230CB006530ED
:1006D000CC006230CD00CE010030C900CA30C80065
:1006E000EF203808C5001321C92B4C30CA006F30E9
:1006F000CB002030CC006230CD00CE010030C900EC
:10070000CA30C800EF203608C5001321C92B3408B1
:10071000003C03189F2B4C30CA002030CB00CC008B
:10072000CD002D30CE00CF010030C900CA30C80046
:10073000EF203408C8000530C9004D20C92B35080A
:10074000003C0318B72B7230CA002030CB00CC001D
:10075000CD002D30CE00CF010030C900CA30C80016
:10076000EF203508C8000530C9004D20C92B4230A4
:10077000CA004130CB004C30CC002030CD00CE0040
:10078000CF003030D000D1010030C900CA30C800DD
:10079000EF200730D3006430D4003520B9200800A2
:1007A00083160313C9019E204A080A3A031D080054
:1007B0000130C9009E204A08B1000230C9009E20C5
:1007C0004A08B4000330C9009E204A08B50004302E
:1007D000C9009E204A08B6000530C9009E204A087C
:1007E000B7000630C9009E204A08B8000730C9008B
:1007F0009E204A08B0000800203083160313CE0064
:100800004930CA006930CC006E30CB00D0006F3068
:10081000CF007430CD00D1010030C900CA30C8000B
:10082000EF20B920080083160313B90A3908043CE5
:1008300003181C2C0130B90042230800831603134F
:100840003908013A03192E2C033A0319352C013AC1
:1008500003193C2C073A0319432C502C3708C500C8
:100860002E234608B700DB21502C3808C5002E2364
:100870004608B800D321502C3608C5002E23460860
:10088000B600E321502CB408031D4E2CB50A3508E0
:100890004E3C03184F2C4E30B5004F2CB403B721FB
:1008A00042230800831603133908013A0319622C06
:1008B000033A0319692C013A0319702C073A0319FA
:1008C000772C842C3708C5001B234608B700DB2192
:1008D000842C3808C5001B234608B800D321842C7B
:1008E0003608C5001B234608B600E321842CB50852
:1008F000031D822CB40A34084E3C0318832C4E305E
:10090000B400832CB503B7214223080083160313D8
:10091000B9030130390203188F2C0430B900422387
:100920000800831603133108383A031D9B2CB201CB
:100930002F30B1009C2CB1033108383C031CB101AD
:100940001222080083160313B10A31082F3C031842
:10095000AD2C0130B2003830B100122208008316ED
:100960000313AE080319DD2C831207118714071037
:10097000682147308316CA006F30CB00CC0064304A
:10098000CD006230CE007930CF006530D000D1018B
:100990000030C900CA30C800EF20B920AE01831270
:1009A0008612061206308316C50026200C23B822B4
:1009B0008312071187100714080083120711871488
:1009C0000710F4224830CA004530CB004C30CC0030
:1009D000CD004F30CE00CF010030C900CA30C80072
:1009E000EF20B9206430C6001A2083128616013029
:1009F0008316AE00C5011B30450203180F2D83126C
:100A00000715871064308316C6001A208312071159
:100A1000871464308316C6001A20C50AFB2C6E2189
:100A20002322080083160313B0033008043C031884
:100A30001B2D0330B000EB21080083160313B00A0E
:100A4000043030020318B001EB21080083120313B5
:100A500086108316C308031D0800AE080319832DF2
:100A600044080D3A0319412D1D3A03195C2D013A32
:100A70000319642D313A03196C2D013A0319782DAD
:100A8000832D410842060319502DB301B908031DF7
:100A90004C2D68211014832DB90123226821832D48
:100AA000B30A6821831633080E3C0318592D2D17FD
:100AB000832D83121014832DB908031D622D9124F8
:100AC0002322832D1E24832DB908031D6A2DA22401
:100AD0002322832D5224832D410842060319832D9E
:100AE000B908031D762D12252322832D1324832D6F
:100AF000410842060319832DB908031D822D1D25C7
:100B00002322832D8624831644080C3A031D8E2D40
:100B10004108420603198E2DB901AF2483164108FE
:100B2000C20008008316031385010230831285007A
:100B3000053083168600083083128600183083162D
:100B40008700831287008316811783129F01073065
:100B500083169F008312901210169011101590109A
:100B600010108F018E0183160C1483120C10383074
:100B700092041211921012106C308316920083129C
:100B80008C1083168C140B1601138B1038308312C3
:100B90009400831691010930930094171413831263
:100BA0008D11D0230130C500262083120714F422B2
:100BB000FC230230C50026200C230B178B17AD0138
:100BC0000800831603133203031DE82DB201EA2D3A
:100BD0000130B20012220800922583162D08003C35
:100BE0000318062E2D1CF62D26252D10AD1EFD2DCD
:100BF000E125232268218316AD122D1FED2D013032
:100C0000B9004223682183162D13ED2D8312061996
:100C1000152E8316AE08031D152EAF08031D152EC5
:100C20000130AF000230B000AF248312061D202E29
:100C30008316AE080319202EAF080319202EAF2407
:100C40008312061DED2D8316AE08031DED2DAF0199
:100C5000ED2D033083120313FB000330FC0003303F
:100C6000FD00FE018316AD01AE01AF010130B00001
:100C70003730B100B201B301B401B5010730B6009D
:100C80000730B7000730B800B9018312A001A101F5
:100C90002230A200A301A401A501A6012030A700D3
:100CA0004E30A8007830A900AA01AB01AC01013098
:100CB000AD00AE01AF017E30B0003030B1006D301C
:100CC000B2007930B3003330B4005B30B5005F3030
:100CD000B6007030B7007F30B8007B30B900BA0181
:100CE000BB01BC010930BD00BE016530BF00C001C1
:100CF0007730C1001F30C2004E30C3003D30C40009
:100D00004F30C5004730C6005E30C7003730C800DE
:100D10003030C9003C30CA00CB010E30CC00CD01D0
:100D20001530CE007E30CF006730D000D1010530C5
:100D3000D2005B30D3007030D4003E30D500D601F5
:100D4000D701D8013B30D900DA01DB01DC01DD013C
:100D5000DE01DF01E0017D30E1001F30E2000D30F7
:100D6000E3003D30E4006F30E5004730E6005E30E0
:100D7000E7001730E8001030E9003C30EA00EB01F2
:100D80000E30EC00ED011530EE001D30EF00673045
:100D9000F000F1010530F2005B30F3000F30F40099
:100DA0001C30F500F601F701F8013B30F900FA01BB
:100DB0008316BA01BB01BF010130C000C101C201ED
:100DC000C301C4018A110A12EC2D8B1C012F83165A
:100DD00003133A1CEC2E01173A1C0113BA0ABE0A7F
:100DE000BF08031D002FBD01BE01831291011A30FF
:100DF0008316920083128C10121501308316BF00E7
:100E00008B10831203138C1C872F8316C00183124F
:100E1000061C0C2F8316C00A83163F0303191A2FD2
:100E2000BD0A3D1C152F8312861483163D181A2FF8
:100E3000831286108316D6013F08013A0319272F23
:100E4000033A03192F2F013A0319402F792F8312E8
:100E500091016C30831692000230BF007B2F3D035E
:100E6000031D3D2F3E03031D3D2FBD01BE01BC01EF
:100E7000AB01AC010330BF007B2F0130D6007B2FCC
:100E80003D08023A031D7B2F3E08023C031C762FCF
:100E9000BD01BE010C303C020318562FBC0A0310E2
:100EA000AB0DAC0D400303192B147B2F3F302B05EA
:100EB000C4000630D700D7080319632F0310AC0C09
:100EC000AB0CD7035C2F1F302B05C3000530D700B8
:100ED000D7080319702F0310AC0CAB0CD703692F84
:100EE0002B08C1002D140130D6007B2F0130D60015
:100EF0007B2F0130D600D6080319852FBF0183123E
:100F00001211831601138312861083128C100C1C8D
:100F1000902F0F3083163302031CAD1683120C1072
:100F200083162A0E8400290E8A00280E8300FF0EE5
:040F30007F0E090027
:02400E00B93FB8
:00000001FF
